{
  "_format": "hh-sol-artifact-1",
  "contractName": "BasicSCM",
  "sourceName": "contracts/BasicSCM.sol",
  "abi": [
    {
      "inputs": [],
      "stateMutability": "nonpayable",
      "type": "constructor"
    },
    {
      "inputs": [],
      "name": "ReceivedOrderNotOfDesiredQuality",
      "type": "error"
    },
    {
      "inputs": [],
      "name": "WaitingForRemainingOrder",
      "type": "error"
    },
    {
      "anonymous": false,
      "inputs": [
        {
          "indexed": true,
          "internalType": "address",
          "name": "sender",
          "type": "address"
        },
        {
          "indexed": false,
          "internalType": "uint256",
          "name": "fund",
          "type": "uint256"
        }
      ],
      "name": "DepositMade",
      "type": "event"
    },
    {
      "stateMutability": "payable",
      "type": "fallback"
    },
    {
      "inputs": [],
      "name": "Baddress",
      "outputs": [
        {
          "internalType": "address",
          "name": "",
          "type": "address"
        }
      ],
      "stateMutability": "view",
      "type": "function"
    },
    {
      "inputs": [
        {
          "internalType": "address",
          "name": "newBuyersAddress",
          "type": "address"
        }
      ],
      "name": "BuyersAddress",
      "outputs": [],
      "stateMutability": "nonpayable",
      "type": "function"
    },
    {
      "inputs": [],
      "name": "DD",
      "outputs": [
        {
          "internalType": "uint256",
          "name": "",
          "type": "uint256"
        }
      ],
      "stateMutability": "view",
      "type": "function"
    },
    {
      "inputs": [],
      "name": "DT",
      "outputs": [
        {
          "internalType": "uint256",
          "name": "",
          "type": "uint256"
        }
      ],
      "stateMutability": "view",
      "type": "function"
    },
    {
      "inputs": [
        {
          "internalType": "uint256",
          "name": "nos",
          "type": "uint256"
        }
      ],
      "name": "DeliveryDeduc",
      "outputs": [],
      "stateMutability": "nonpayable",
      "type": "function"
    },
    {
      "inputs": [],
      "name": "FirstInstallment",
      "outputs": [],
      "stateMutability": "nonpayable",
      "type": "function"
    },
    {
      "inputs": [
        {
          "internalType": "uint256",
          "name": "priceInToken",
          "type": "uint256"
        }
      ],
      "name": "NetPriceOfdefectivepieces",
      "outputs": [],
      "stateMutability": "nonpayable",
      "type": "function"
    },
    {
      "inputs": [
        {
          "internalType": "uint256",
          "name": "nos",
          "type": "uint256"
        }
      ],
      "name": "QualityN",
      "outputs": [],
      "stateMutability": "nonpayable",
      "type": "function"
    },
    {
      "inputs": [],
      "name": "Saddress",
      "outputs": [
        {
          "internalType": "address",
          "name": "",
          "type": "address"
        }
      ],
      "stateMutability": "view",
      "type": "function"
    },
    {
      "inputs": [],
      "name": "SecondInstallment",
      "outputs": [],
      "stateMutability": "nonpayable",
      "type": "function"
    },
    {
      "inputs": [
        {
          "internalType": "address",
          "name": "newSellersAddress",
          "type": "address"
        }
      ],
      "name": "SellersAddress",
      "outputs": [],
      "stateMutability": "nonpayable",
      "type": "function"
    },
    {
      "inputs": [],
      "name": "_input",
      "outputs": [
        {
          "internalType": "uint256",
          "name": "",
          "type": "uint256"
        }
      ],
      "stateMutability": "view",
      "type": "function"
    },
    {
      "inputs": [],
      "name": "amount",
      "outputs": [
        {
          "internalType": "uint256",
          "name": "",
          "type": "uint256"
        }
      ],
      "stateMutability": "view",
      "type": "function"
    },
    {
      "inputs": [],
      "name": "balance",
      "outputs": [
        {
          "internalType": "uint256",
          "name": "",
          "type": "uint256"
        }
      ],
      "stateMutability": "view",
      "type": "function"
    },
    {
      "inputs": [],
      "name": "buyerapproval",
      "outputs": [
        {
          "internalType": "uint256",
          "name": "",
          "type": "uint256"
        }
      ],
      "stateMutability": "view",
      "type": "function"
    },
    {
      "inputs": [
        {
          "internalType": "uint256",
          "name": "number",
          "type": "uint256"
        }
      ],
      "name": "buyersapproval",
      "outputs": [],
      "stateMutability": "nonpayable",
      "type": "function"
    },
    {
      "inputs": [
        {
          "internalType": "uint256",
          "name": "nos",
          "type": "uint256"
        }
      ],
      "name": "delivery",
      "outputs": [],
      "stateMutability": "nonpayable",
      "type": "function"
    },
    {
      "inputs": [
        {
          "internalType": "uint256",
          "name": "day",
          "type": "uint256"
        }
      ],
      "name": "deliveryTime",
      "outputs": [],
      "stateMutability": "nonpayable",
      "type": "function"
    },
    {
      "inputs": [],
      "name": "desiredPrice",
      "outputs": [
        {
          "internalType": "uint256",
          "name": "",
          "type": "uint256"
        }
      ],
      "stateMutability": "view",
      "type": "function"
    },
    {
      "inputs": [
        {
          "internalType": "uint256",
          "name": "priceInToken",
          "type": "uint256"
        }
      ],
      "name": "desiredPricebybuyer",
      "outputs": [],
      "stateMutability": "nonpayable",
      "type": "function"
    },
    {
      "inputs": [],
      "name": "expectedDelivery",
      "outputs": [
        {
          "internalType": "uint256",
          "name": "",
          "type": "uint256"
        }
      ],
      "stateMutability": "view",
      "type": "function"
    },
    {
      "inputs": [
        {
          "internalType": "uint256",
          "name": "nos",
          "type": "uint256"
        }
      ],
      "name": "fund",
      "outputs": [],
      "stateMutability": "nonpayable",
      "type": "function"
    },
    {
      "inputs": [
        {
          "internalType": "address",
          "name": "fundingAddress",
          "type": "address"
        }
      ],
      "name": "getAddresstoAmountFunded",
      "outputs": [
        {
          "internalType": "uint256",
          "name": "",
          "type": "uint256"
        }
      ],
      "stateMutability": "view",
      "type": "function"
    },
    {
      "inputs": [],
      "name": "getAllFunders",
      "outputs": [
        {
          "internalType": "address[3]",
          "name": "",
          "type": "address[3]"
        }
      ],
      "stateMutability": "view",
      "type": "function"
    },
    {
      "inputs": [],
      "name": "getBuyersAddress",
      "outputs": [
        {
          "internalType": "address",
          "name": "",
          "type": "address"
        }
      ],
      "stateMutability": "view",
      "type": "function"
    },
    {
      "inputs": [
        {
          "internalType": "uint256",
          "name": "index",
          "type": "uint256"
        }
      ],
      "name": "getFunder",
      "outputs": [
        {
          "internalType": "address",
          "name": "",
          "type": "address"
        }
      ],
      "stateMutability": "view",
      "type": "function"
    },
    {
      "inputs": [],
      "name": "getOwner",
      "outputs": [
        {
          "internalType": "address",
          "name": "",
          "type": "address"
        }
      ],
      "stateMutability": "view",
      "type": "function"
    },
    {
      "inputs": [
        {
          "internalType": "uint256",
          "name": "id",
          "type": "uint256"
        }
      ],
      "name": "getTransaction",
      "outputs": [
        {
          "components": [
            {
              "internalType": "address",
              "name": "caller",
              "type": "address"
            },
            {
              "internalType": "string",
              "name": "functionName",
              "type": "string"
            },
            {
              "internalType": "bytes32",
              "name": "Input",
              "type": "bytes32"
            }
          ],
          "internalType": "struct BasicSCM.Transaction[]",
          "name": "",
          "type": "tuple[]"
        }
      ],
      "stateMutability": "view",
      "type": "function"
    },
    {
      "inputs": [],
      "name": "getTransactionCount",
      "outputs": [
        {
          "internalType": "uint256",
          "name": "",
          "type": "uint256"
        }
      ],
      "stateMutability": "view",
      "type": "function"
    },
    {
      "inputs": [
        {
          "internalType": "uint256",
          "name": "nos",
          "type": "uint256"
        }
      ],
      "name": "giveInput",
      "outputs": [],
      "stateMutability": "nonpayable",
      "type": "function"
    },
    {
      "inputs": [],
      "name": "lastTransactionSuccess",
      "outputs": [
        {
          "internalType": "bool",
          "name": "",
          "type": "bool"
        }
      ],
      "stateMutability": "view",
      "type": "function"
    },
    {
      "inputs": [],
      "name": "orderReceived",
      "outputs": [
        {
          "internalType": "uint256",
          "name": "",
          "type": "uint256"
        }
      ],
      "stateMutability": "view",
      "type": "function"
    },
    {
      "inputs": [],
      "name": "orderReceivedCalled",
      "outputs": [
        {
          "internalType": "bool",
          "name": "",
          "type": "bool"
        }
      ],
      "stateMutability": "view",
      "type": "function"
    },
    {
      "inputs": [],
      "name": "orderShippedCalled",
      "outputs": [
        {
          "internalType": "bool",
          "name": "",
          "type": "bool"
        }
      ],
      "stateMutability": "view",
      "type": "function"
    },
    {
      "inputs": [
        {
          "internalType": "uint256",
          "name": "nos",
          "type": "uint256"
        }
      ],
      "name": "orderShippingConfirmation",
      "outputs": [],
      "stateMutability": "nonpayable",
      "type": "function"
    },
    {
      "inputs": [
        {
          "internalType": "uint256",
          "name": "nos",
          "type": "uint256"
        }
      ],
      "name": "orderhasbeenreceived",
      "outputs": [],
      "stateMutability": "nonpayable",
      "type": "function"
    },
    {
      "inputs": [],
      "name": "orderhasbeenshipped",
      "outputs": [
        {
          "internalType": "uint256",
          "name": "",
          "type": "uint256"
        }
      ],
      "stateMutability": "view",
      "type": "function"
    },
    {
      "inputs": [
        {
          "internalType": "string",
          "name": "id",
          "type": "string"
        }
      ],
      "name": "ordershipped",
      "outputs": [],
      "stateMutability": "nonpayable",
      "type": "function"
    },
    {
      "inputs": [],
      "name": "qnty",
      "outputs": [
        {
          "internalType": "uint256",
          "name": "",
          "type": "uint256"
        }
      ],
      "stateMutability": "view",
      "type": "function"
    },
    {
      "inputs": [],
      "name": "quality",
      "outputs": [
        {
          "internalType": "uint256",
          "name": "",
          "type": "uint256"
        }
      ],
      "stateMutability": "view",
      "type": "function"
    },
    {
      "inputs": [
        {
          "internalType": "uint256",
          "name": "review",
          "type": "uint256"
        }
      ],
      "name": "qualityofReceivedProduct",
      "outputs": [],
      "stateMutability": "nonpayable",
      "type": "function"
    },
    {
      "inputs": [],
      "name": "quantity",
      "outputs": [
        {
          "internalType": "uint256",
          "name": "",
          "type": "uint256"
        }
      ],
      "stateMutability": "view",
      "type": "function"
    },
    {
      "inputs": [
        {
          "internalType": "uint256",
          "name": "nos",
          "type": "uint256"
        }
      ],
      "name": "quantityarrived",
      "outputs": [],
      "stateMutability": "nonpayable",
      "type": "function"
    },
    {
      "inputs": [],
      "name": "resetState",
      "outputs": [],
      "stateMutability": "nonpayable",
      "type": "function"
    },
    {
      "inputs": [
        {
          "internalType": "address",
          "name": "",
          "type": "address"
        }
      ],
      "name": "s_addressToAmountFunded",
      "outputs": [
        {
          "internalType": "uint256",
          "name": "",
          "type": "uint256"
        }
      ],
      "stateMutability": "view",
      "type": "function"
    },
    {
      "inputs": [
        {
          "internalType": "uint256",
          "name": "",
          "type": "uint256"
        }
      ],
      "name": "s_funders",
      "outputs": [
        {
          "internalType": "address",
          "name": "",
          "type": "address"
        }
      ],
      "stateMutability": "view",
      "type": "function"
    },
    {
      "inputs": [],
      "name": "sellerapproval",
      "outputs": [
        {
          "internalType": "uint256",
          "name": "",
          "type": "uint256"
        }
      ],
      "stateMutability": "view",
      "type": "function"
    },
    {
      "inputs": [
        {
          "internalType": "uint256",
          "name": "number",
          "type": "uint256"
        }
      ],
      "name": "sellersApproval",
      "outputs": [],
      "stateMutability": "nonpayable",
      "type": "function"
    },
    {
      "inputs": [],
      "name": "tokenAddress",
      "outputs": [
        {
          "internalType": "address",
          "name": "",
          "type": "address"
        }
      ],
      "stateMutability": "view",
      "type": "function"
    },
    {
      "inputs": [],
      "name": "transactionCount",
      "outputs": [
        {
          "internalType": "uint256",
          "name": "",
          "type": "uint256"
        }
      ],
      "stateMutability": "view",
      "type": "function"
    },
    {
      "inputs": [
        {
          "internalType": "uint256",
          "name": "",
          "type": "uint256"
        }
      ],
      "name": "transactions",
      "outputs": [
        {
          "internalType": "address",
          "name": "caller",
          "type": "address"
        },
        {
          "internalType": "string",
          "name": "functionName",
          "type": "string"
        },
        {
          "internalType": "bytes32",
          "name": "Input",
          "type": "bytes32"
        }
      ],
      "stateMutability": "view",
      "type": "function"
    },
    {
      "inputs": [],
      "name": "withdraw",
      "outputs": [],
      "stateMutability": "payable",
      "type": "function"
    },
    {
      "stateMutability": "payable",
      "type": "receive"
    }
  ],
  "bytecode": "0x608060405260006002556000600f60006101000a81548160ff0219169083151502179055506000600f60016101000a81548160ff0219169083151502179055506000600f60026101000a81548160ff0219169083151502179055506000600f60036101000a81548160ff02191690831515021790555034801561008157600080fd5b5033601760006101000a81548173ffffffffffffffffffffffffffffffffffffffff021916908373ffffffffffffffffffffffffffffffffffffffff160217905550614954806100d26000396000f3fe6080604052600436106103035760003560e01c80638a7df77911610190578063c10c0c98116100dc578063d46da46411610095578063ec1141961161006f578063ec11419614610b45578063eccc32f214610b5c578063edaaeed214610b87578063f9e19fa514610bb257610313565b8063d46da46414610ab4578063d7b4750c14610add578063dede541914610b1a57610313565b8063c10c0c98146109ba578063c82b50ae146109e5578063ca1d209d14610a0e578063cad9bce914610a37578063cbd5087214610a62578063ced2185a14610a8b57610313565b80639c2abd2911610149578063aa8c217c11610123578063aa8c217c1461090e578063b69ef8a814610939578063b762bad714610964578063b77bf6001461098f57610313565b80639c2abd29146108915780639d76ea58146108ba578063a16f438f146108e557610313565b80638a7df7791461077f5780638b0becd6146107aa57806391b06385146107d357806396e700d3146107fc5780639ace38c2146108275780639af76e551461086657610313565b80633c95f0f71161024f578063676b4240116102085780637e92055b116101e25780637e92055b146106d7578063812d78551461070057806388dd388614610729578063893d20e81461075457610313565b8063676b4240146106585780636c113efa146106815780636fbbb55d146106ac57610313565b80633c95f0f7146105795780633ccfd60b146105a45780634fed2513146105ae57806354861af7146105d957806360b8e8b71461061657806363d848f51461062d57610313565b80631bf6132d116102bc57806322c7da921161029657806322c7da92146104bd5780632e7700f0146104e857806333ea3dc8146105135780633543f3c41461055057610313565b80631bf6132d146104185780631cb4ed96146104555780632215c1bd1461049257610313565b8063031c2b341461031e5780630f9beadf146103475780631144fd721461037057806316330f8d14610399578063178dddc3146103c257806317fc45e2146103ed57610313565b366103135761031134610bc9565b005b61031c34610bc9565b005b34801561032a57600080fd5b50610345600480360381019061034091906134e4565b610f50565b005b34801561035357600080fd5b5061036e600480360381019061036991906134e4565b610fea565b005b34801561037c57600080fd5b50610397600480360381019061039291906134e4565b6110c6565b005b3480156103a557600080fd5b506103c060048036038101906103bb91906134e4565b611160565b005b3480156103ce57600080fd5b506103d761123c565b6040516103e49190613520565b60405180910390f35b3480156103f957600080fd5b50610402611242565b60405161040f9190613520565b60405180910390f35b34801561042457600080fd5b5061043f600480360381019061043a9190613599565b611248565b60405161044c9190613520565b60405180910390f35b34801561046157600080fd5b5061047c60048036038101906104779190613599565b611260565b6040516104899190613520565b60405180910390f35b34801561049e57600080fd5b506104a76112a9565b6040516104b49190613520565b60405180910390f35b3480156104c957600080fd5b506104d26112af565b6040516104df91906135e1565b60405180910390f35b3480156104f457600080fd5b506104fd6112c2565b60405161050a9190613520565b60405180910390f35b34801561051f57600080fd5b5061053a600480360381019061053591906134e4565b6112cc565b60405161054791906137c6565b60405180910390f35b34801561055c57600080fd5b5061057760048036038101906105729190613599565b61144c565b005b34801561058557600080fd5b5061058e611520565b60405161059b91906135e1565b60405180910390f35b6105ac611533565b005b3480156105ba57600080fd5b506105c3611cd3565b6040516105d091906137f7565b60405180910390f35b3480156105e557600080fd5b5061060060048036038101906105fb91906134e4565b611cfd565b60405161060d91906137f7565b60405180910390f35b34801561062257600080fd5b5061062b611d3c565b005b34801561063957600080fd5b50610642612047565b60405161064f91906135e1565b60405180910390f35b34801561066457600080fd5b5061067f600480360381019061067a9190613599565b61205a565b005b34801561068d57600080fd5b5061069661212e565b6040516106a39190613520565b60405180910390f35b3480156106b857600080fd5b506106c1612134565b6040516106ce91906138ae565b60405180910390f35b3480156106e357600080fd5b506106fe60048036038101906106f991906134e4565b612241565b005b34801561070c57600080fd5b50610727600480360381019061072291906134e4565b61231d565b005b34801561073557600080fd5b5061073e6123f9565b60405161074b9190613520565b60405180910390f35b34801561076057600080fd5b506107696123ff565b60405161077691906137f7565b60405180910390f35b34801561078b57600080fd5b50610794612429565b6040516107a19190613520565b60405180910390f35b3480156107b657600080fd5b506107d160048036038101906107cc91906134e4565b61242f565b005b3480156107df57600080fd5b506107fa60048036038101906107f591906134e4565b61253d565b005b34801561080857600080fd5b50610811612619565b60405161081e9190613520565b60405180910390f35b34801561083357600080fd5b5061084e600480360381019061084991906134e4565b61261f565b60405161085d93929190613922565b60405180910390f35b34801561087257600080fd5b5061087b6126f1565b60405161088891906137f7565b60405180910390f35b34801561089d57600080fd5b506108b860048036038101906108b391906134e4565b612717565b005b3480156108c657600080fd5b506108cf6127f3565b6040516108dc91906137f7565b60405180910390f35b3480156108f157600080fd5b5061090c600480360381019061090791906134e4565b61280b565b005b34801561091a57600080fd5b50610923612904565b6040516109309190613520565b60405180910390f35b34801561094557600080fd5b5061094e61290a565b60405161095b9190613520565b60405180910390f35b34801561097057600080fd5b50610979612910565b6040516109869190613520565b60405180910390f35b34801561099b57600080fd5b506109a4612916565b6040516109b19190613520565b60405180910390f35b3480156109c657600080fd5b506109cf61291c565b6040516109dc9190613520565b60405180910390f35b3480156109f157600080fd5b50610a0c6004803603810190610a0791906134e4565b612922565b005b348015610a1a57600080fd5b50610a356004803603810190610a3091906134e4565b610bc9565b005b348015610a4357600080fd5b50610a4c6129bc565b604051610a5991906137f7565b60405180910390f35b348015610a6e57600080fd5b50610a896004803603810190610a8491906134e4565b6129e2565b005b348015610a9757600080fd5b50610ab26004803603810190610aad9190613a95565b612abe565b005b348015610ac057600080fd5b50610adb6004803603810190610ad691906134e4565b612bd3565b005b348015610ae957600080fd5b50610b046004803603810190610aff91906134e4565b612caf565b604051610b1191906137f7565b60405180910390f35b348015610b2657600080fd5b50610b2f612cf7565b604051610b3c9190613520565b60405180910390f35b348015610b5157600080fd5b50610b5a612cfd565b005b348015610b6857600080fd5b50610b71613008565b604051610b7e9190613520565b60405180910390f35b348015610b9357600080fd5b50610b9c61300e565b604051610ba99190613520565b60405180910390f35b348015610bbe57600080fd5b50610bc7613014565b005b6000620f424082610bda9190613b0d565b90506000733c499c542cef5e3811e1192ce70d8cc03d5c335990508073ffffffffffffffffffffffffffffffffffffffff166323b872dd3330856040518463ffffffff1660e01b8152600401610c3293929190613b4f565b6020604051808303816000875af1158015610c51573d6000803e3d6000fd5b505050506040513d601f19601f82011682018060405250810190610c759190613bb2565b610cb4576040517f08c379a0000000000000000000000000000000000000000000000000000000008152600401610cab90613c2b565b60405180910390fd5b81600360003373ffffffffffffffffffffffffffffffffffffffff1673ffffffffffffffffffffffffffffffffffffffff1681526020019081526020016000206000828254610d039190613c4b565b925050819055508073ffffffffffffffffffffffffffffffffffffffff166370a08231306040518263ffffffff1660e01b8152600401610d4391906137f7565b602060405180830381865afa158015610d60573d6000803e3d6000fd5b505050506040513d601f19601f82011682018060405250810190610d849190613c94565b600d8190555060005b600480549050811015610e3e573373ffffffffffffffffffffffffffffffffffffffff1660048281548110610dc557610dc4613cc1565b5b9060005260206000200160009054906101000a900473ffffffffffffffffffffffffffffffffffffffff1673ffffffffffffffffffffffffffffffffffffffff1603610e2b576001600f60036101000a81548160ff021916908315150217905550610e3e565b8080610e3690613cf0565b915050610d8d565b50600f60039054906101000a900460ff16158015610e6157506003600480549050105b15610ece576004339080600181540180825580915050600190039060005260206000200160009091909190916101000a81548173ffffffffffffffffffffffffffffffffffffffff021916908373ffffffffffffffffffffffffffffffffffffffff160217905550610f09565b6040517f08c379a0000000000000000000000000000000000000000000000000000000008152600401610f0090613daa565b60405180910390fd5b610f4b6040518060400160405280600481526020017f66756e64000000000000000000000000000000000000000000000000000000008152508460001b61328b565b505050565b601760009054906101000a900473ffffffffffffffffffffffffffffffffffffffff1673ffffffffffffffffffffffffffffffffffffffff163373ffffffffffffffffffffffffffffffffffffffff1614610fe0576040517f08c379a0000000000000000000000000000000000000000000000000000000008152600401610fd790613e16565b60405180910390fd5b8060158190555050565b601360009054906101000a900473ffffffffffffffffffffffffffffffffffffffff1673ffffffffffffffffffffffffffffffffffffffff163373ffffffffffffffffffffffffffffffffffffffff161461107a576040517f08c379a000000000000000000000000000000000000000000000000000000000815260040161107190613ea8565b60405180910390fd5b806005819055506110c36040518060400160405280600c81526020017f64656c697665727954696d6500000000000000000000000000000000000000008152508260001b61328b565b50565b601760009054906101000a900473ffffffffffffffffffffffffffffffffffffffff1673ffffffffffffffffffffffffffffffffffffffff163373ffffffffffffffffffffffffffffffffffffffff1614611156576040517f08c379a000000000000000000000000000000000000000000000000000000000815260040161114d90613e16565b60405180910390fd5b8060148190555050565b601360009054906101000a900473ffffffffffffffffffffffffffffffffffffffff1673ffffffffffffffffffffffffffffffffffffffff163373ffffffffffffffffffffffffffffffffffffffff16146111f0576040517f08c379a00000000000000000000000000000000000000000000000000000000081526004016111e790613ea8565b60405180910390fd5b80600a819055506112396040518060400160405280601381526020017f64657369726564507269636562796275796572000000000000000000000000008152508260001b61328b565b50565b600c5481565b60065481565b60036020528060005260406000206000915090505481565b6000600360008373ffffffffffffffffffffffffffffffffffffffff1673ffffffffffffffffffffffffffffffffffffffff168152602001908152602001600020549050919050565b60085481565b600f60009054906101000a900460ff1681565b6000600254905090565b606060006001600084815260200190815260200160002090506000600167ffffffffffffffff8111156113025761130161396a565b5b60405190808252806020026020018201604052801561133b57816020015b611328613357565b8152602001906001900390816113205790505b50905060405180606001604052808360000160009054906101000a900473ffffffffffffffffffffffffffffffffffffffff1673ffffffffffffffffffffffffffffffffffffffff16815260200183600101805461139890613ef7565b80601f01602080910402602001604051908101604052809291908181526020018280546113c490613ef7565b80156114115780601f106113e657610100808354040283529160200191611411565b820191906000526020600020905b8154815290600101906020018083116113f457829003601f168201915b5050505050815260200183600201548152508160008151811061143757611436613cc1565b5b60200260200101819052508092505050919050565b601760009054906101000a900473ffffffffffffffffffffffffffffffffffffffff1673ffffffffffffffffffffffffffffffffffffffff163373ffffffffffffffffffffffffffffffffffffffff16146114dc576040517f08c379a00000000000000000000000000000000000000000000000000000000081526004016114d390613e16565b60405180910390fd5b80601360006101000a81548173ffffffffffffffffffffffffffffffffffffffff021916908373ffffffffffffffffffffffffffffffffffffffff16021790555050565b600f60029054906101000a900460ff1681565b600460008154811061154857611547613cc1565b5b9060005260206000200160009054906101000a900473ffffffffffffffffffffffffffffffffffffffff1673ffffffffffffffffffffffffffffffffffffffff163373ffffffffffffffffffffffffffffffffffffffff16036115e0576040517f08c379a00000000000000000000000000000000000000000000000000000000081526004016115d790613f9a565b60405180910390fd5b601454600554111561164f57601654600d541015611633576040517f08c379a000000000000000000000000000000000000000000000000000000000815260040161162a90614006565b60405180910390fd5b601654600d60008282546116479190614026565b925050819055505b6015546006541015611795576000600854116116a0576040517f08c379a0000000000000000000000000000000000000000000000000000000008152600401611697906140cc565b60405180910390fd5b60016008540361175657600d5460075411156116f1576040517f08c379a00000000000000000000000000000000000000000000000000000000081526004016116e89061415e565b60405180910390fd5b600060075411611736576040517f08c379a000000000000000000000000000000000000000000000000000000000815260040161172d906140cc565b60405180910390fd5b600754600d600082825461174a9190614026565b92505081905550611794565b60016008541115611793576040517f95e12f6800000000000000000000000000000000000000000000000000000000815260040160405180910390fd5b5b5b6001600954146118d9576000600854116117e4576040517f08c379a00000000000000000000000000000000000000000000000000000000081526004016117db906140cc565b60405180910390fd5b60016008540361189a57600d546007541115611835576040517f08c379a000000000000000000000000000000000000000000000000000000000815260040161182c9061415e565b60405180910390fd5b60006007541161187a576040517f08c379a0000000000000000000000000000000000000000000000000000000008152600401611871906140cc565b60405180910390fd5b600754600d600082825461188e9190614026565b925050819055506118d8565b600160085411156118d7576040517ff9d2c4ff00000000000000000000000000000000000000000000000000000000815260040160405180910390fd5b5b5b6001600b541461191e576040517f08c379a0000000000000000000000000000000000000000000000000000000008152600401611915906141ca565b60405180910390fd5b6001600c5414611963576040517f08c379a000000000000000000000000000000000000000000000000000000000815260040161195a90614236565b60405180910390fd5b6000733c499c542cef5e3811e1192ce70d8cc03d5c335990508073ffffffffffffffffffffffffffffffffffffffff1663a9059cbb601260009054906101000a900473ffffffffffffffffffffffffffffffffffffffff16600d546040518363ffffffff1660e01b81526004016119db929190614256565b6020604051808303816000875af11580156119fa573d6000803e3d6000fd5b505050506040513d601f19601f82011682018060405250810190611a1e9190613bb2565b611a5d576040517f08c379a0000000000000000000000000000000000000000000000000000000008152600401611a54906142cb565b60405180910390fd5b8073ffffffffffffffffffffffffffffffffffffffff1663a9059cbb601360009054906101000a900473ffffffffffffffffffffffffffffffffffffffff168373ffffffffffffffffffffffffffffffffffffffff166370a08231306040518263ffffffff1660e01b8152600401611ad591906137f7565b602060405180830381865afa158015611af2573d6000803e3d6000fd5b505050506040513d601f19601f82011682018060405250810190611b169190613c94565b6040518363ffffffff1660e01b8152600401611b33929190614256565b6020604051808303816000875af1158015611b52573d6000803e3d6000fd5b505050506040513d601f19601f82011682018060405250810190611b769190613bb2565b611bb5576040517f08c379a0000000000000000000000000000000000000000000000000000000008152600401611bac90614337565b60405180910390fd5b6000600360003373ffffffffffffffffffffffffffffffffffffffff1673ffffffffffffffffffffffffffffffffffffffff16815260200190815260200160002081905550600067ffffffffffffffff811115611c1557611c1461396a565b5b604051908082528060200260200182016040528015611c435781602001602082028036833780820191505090505b5060049080519060200190611c59929190613391565b506000600d81905550611c6a613014565b611cd06040518060400160405280600881526020017f77697468647261770000000000000000000000000000000000000000000000008152506011604051602001611cb591906143fa565b6040516020818303038152906040528051906020012061328b565b50565b6000601360009054906101000a900473ffffffffffffffffffffffffffffffffffffffff16905090565b60048181548110611d0d57600080fd5b906000526020600020016000915054906101000a900473ffffffffffffffffffffffffffffffffffffffff1681565b6004600081548110611d5157611d50613cc1565b5b9060005260206000200160009054906101000a900473ffffffffffffffffffffffffffffffffffffffff1673ffffffffffffffffffffffffffffffffffffffff163373ffffffffffffffffffffffffffffffffffffffff1603611de9576040517f08c379a0000000000000000000000000000000000000000000000000000000008152600401611de090613f9a565b60405180910390fd5b600f60009054906101000a900460ff1615611e39576040517f08c379a0000000000000000000000000000000000000000000000000000000008152600401611e3090614483565b60405180910390fd5b6000733c499c542cef5e3811e1192ce70d8cc03d5c335990506001600e540361204457600060646019600d54611e6f9190613b0d565b611e7991906144d2565b905080600d6000828254611e8d9190614026565b925050819055508173ffffffffffffffffffffffffffffffffffffffff1663a9059cbb601260009054906101000a900473ffffffffffffffffffffffffffffffffffffffff16836040518363ffffffff1660e01b8152600401611ef1929190614256565b6020604051808303816000875af1158015611f10573d6000803e3d6000fd5b505050506040513d601f19601f82011682018060405250810190611f349190613bb2565b611f73576040517f08c379a0000000000000000000000000000000000000000000000000000000008152600401611f6a9061454f565b60405180910390fd5b6001600f60006101000a81548160ff0219169083151502179055503373ffffffffffffffffffffffffffffffffffffffff167fd15c9547ea5c06670c0010ce19bc32d54682a4b3801ece7f3ab0c3f17106b4bb82604051611fd49190613520565b60405180910390a26120426040518060400160405280601081526020017f4669727374496e7374616c6c6d656e7400000000000000000000000000000000815250601160405160200161202791906143fa565b6040516020818303038152906040528051906020012061328b565b505b50565b600f60019054906101000a900460ff1681565b601760009054906101000a900473ffffffffffffffffffffffffffffffffffffffff1673ffffffffffffffffffffffffffffffffffffffff163373ffffffffffffffffffffffffffffffffffffffff16146120ea576040517f08c379a00000000000000000000000000000000000000000000000000000000081526004016120e190613e16565b60405180910390fd5b80601260006101000a81548173ffffffffffffffffffffffffffffffffffffffff021916908373ffffffffffffffffffffffffffffffffffffffff16021790555050565b600a5481565b61213c61341b565b60036004805490501115612185576040517f08c379a000000000000000000000000000000000000000000000000000000000815260040161217c906145bb565b60405180910390fd5b61218d61341b565b60005b60048054905081101561223957600481815481106121b1576121b0613cc1565b5b9060005260206000200160009054906101000a900473ffffffffffffffffffffffffffffffffffffffff168282600381106121ef576121ee613cc1565b5b602002019073ffffffffffffffffffffffffffffffffffffffff16908173ffffffffffffffffffffffffffffffffffffffff1681525050808061223190613cf0565b915050612190565b508091505090565b601360009054906101000a900473ffffffffffffffffffffffffffffffffffffffff1673ffffffffffffffffffffffffffffffffffffffff163373ffffffffffffffffffffffffffffffffffffffff16146122d1576040517f08c379a00000000000000000000000000000000000000000000000000000000081526004016122c890613ea8565b60405180910390fd5b80600e8190555061231a6040518060400160405280601981526020017f6f726465725368697070696e67436f6e6669726d6174696f6e000000000000008152508260001b61328b565b50565b601360009054906101000a900473ffffffffffffffffffffffffffffffffffffffff1673ffffffffffffffffffffffffffffffffffffffff163373ffffffffffffffffffffffffffffffffffffffff16146123ad576040517f08c379a00000000000000000000000000000000000000000000000000000000081526004016123a490613ea8565b60405180910390fd5b80600c819055506123f66040518060400160405280600e81526020017f627579657273617070726f76616c0000000000000000000000000000000000008152508260001b61328b565b50565b60095481565b6000601760009054906101000a900473ffffffffffffffffffffffffffffffffffffffff16905090565b60155481565b600460008154811061244457612443613cc1565b5b9060005260206000200160009054906101000a900473ffffffffffffffffffffffffffffffffffffffff1673ffffffffffffffffffffffffffffffffffffffff163373ffffffffffffffffffffffffffffffffffffffff16036124dc576040517f08c379a00000000000000000000000000000000000000000000000000000000081526004016124d390613f9a565b60405180910390fd5b600a5481036124f357600a546007819055506124f8565b600080fd5b61253a6040518060400160405280601981526020017f4e657450726963654f66646566656374697665706965636573000000000000008152508260001b61328b565b50565b601360009054906101000a900473ffffffffffffffffffffffffffffffffffffffff1673ffffffffffffffffffffffffffffffffffffffff163373ffffffffffffffffffffffffffffffffffffffff16146125cd576040517f08c379a00000000000000000000000000000000000000000000000000000000081526004016125c490613ea8565b60405180910390fd5b806008819055506126166040518060400160405280600981526020017f67697665496e70757400000000000000000000000000000000000000000000008152508260001b61328b565b50565b60105481565b60016020528060005260406000206000915090508060000160009054906101000a900473ffffffffffffffffffffffffffffffffffffffff169080600101805461266890613ef7565b80601f016020809104026020016040519081016040528092919081815260200182805461269490613ef7565b80156126e15780601f106126b6576101008083540402835291602001916126e1565b820191906000526020600020905b8154815290600101906020018083116126c457829003601f168201915b5050505050908060020154905083565b601360009054906101000a900473ffffffffffffffffffffffffffffffffffffffff1681565b601360009054906101000a900473ffffffffffffffffffffffffffffffffffffffff1673ffffffffffffffffffffffffffffffffffffffff163373ffffffffffffffffffffffffffffffffffffffff16146127a7576040517f08c379a000000000000000000000000000000000000000000000000000000000815260040161279e90613ea8565b60405180910390fd5b806010819055506127f06040518060400160405280601481526020017f6f726465726861736265656e72656365697665640000000000000000000000008152508260001b61328b565b50565b733c499c542cef5e3811e1192ce70d8cc03d5c335981565b60046000815481106128205761281f613cc1565b5b9060005260206000200160009054906101000a900473ffffffffffffffffffffffffffffffffffffffff1673ffffffffffffffffffffffffffffffffffffffff163373ffffffffffffffffffffffffffffffffffffffff16036128b8576040517f08c379a00000000000000000000000000000000000000000000000000000000081526004016128af90613f9a565b60405180910390fd5b80600b819055506129016040518060400160405280600f81526020017f73656c6c657273417070726f76616c00000000000000000000000000000000008152508260001b61328b565b50565b60075481565b600d5481565b600b5481565b60025481565b60055481565b601760009054906101000a900473ffffffffffffffffffffffffffffffffffffffff1673ffffffffffffffffffffffffffffffffffffffff163373ffffffffffffffffffffffffffffffffffffffff16146129b2576040517f08c379a00000000000000000000000000000000000000000000000000000000081526004016129a990613e16565b60405180910390fd5b8060168190555050565b601260009054906101000a900473ffffffffffffffffffffffffffffffffffffffff1681565b601360009054906101000a900473ffffffffffffffffffffffffffffffffffffffff1673ffffffffffffffffffffffffffffffffffffffff163373ffffffffffffffffffffffffffffffffffffffff1614612a72576040517f08c379a0000000000000000000000000000000000000000000000000000000008152600401612a6990613ea8565b60405180910390fd5b80600681905550612abb6040518060400160405280600f81526020017f7175616e746974796172726976656400000000000000000000000000000000008152508260001b61328b565b50565b6004600081548110612ad357612ad2613cc1565b5b9060005260206000200160009054906101000a900473ffffffffffffffffffffffffffffffffffffffff1673ffffffffffffffffffffffffffffffffffffffff163373ffffffffffffffffffffffffffffffffffffffff1603612b6b576040517f08c379a0000000000000000000000000000000000000000000000000000000008152600401612b6290613f9a565b60405180910390fd5b612bd06040518060400160405280600c81526020017f6f7264657273686970706564000000000000000000000000000000000000000081525082604051602001612bb5919061460c565b6040516020818303038152906040528051906020012061328b565b50565b601360009054906101000a900473ffffffffffffffffffffffffffffffffffffffff1673ffffffffffffffffffffffffffffffffffffffff163373ffffffffffffffffffffffffffffffffffffffff1614612c63576040517f08c379a0000000000000000000000000000000000000000000000000000000008152600401612c5a90613ea8565b60405180910390fd5b80600981905550612cac6040518060400160405280601881526020017f7175616c6974796f66526563656976656450726f6475637400000000000000008152508260001b61328b565b50565b600060048281548110612cc557612cc4613cc1565b5b9060005260206000200160009054906101000a900473ffffffffffffffffffffffffffffffffffffffff169050919050565b600e5481565b6004600081548110612d1257612d11613cc1565b5b9060005260206000200160009054906101000a900473ffffffffffffffffffffffffffffffffffffffff1673ffffffffffffffffffffffffffffffffffffffff163373ffffffffffffffffffffffffffffffffffffffff1603612daa576040517f08c379a0000000000000000000000000000000000000000000000000000000008152600401612da190613f9a565b60405180910390fd5b6000733c499c542cef5e3811e1192ce70d8cc03d5c33599050600f60019054906101000a900460ff1615612e13576040517f08c379a0000000000000000000000000000000000000000000000000000000008152600401612e0a90614695565b60405180910390fd5b60016010540361300557600060646019600d54612e309190613b0d565b612e3a91906144d2565b905080600d6000828254612e4e9190614026565b925050819055508173ffffffffffffffffffffffffffffffffffffffff1663a9059cbb601260009054906101000a900473ffffffffffffffffffffffffffffffffffffffff16836040518363ffffffff1660e01b8152600401612eb2929190614256565b6020604051808303816000875af1158015612ed1573d6000803e3d6000fd5b505050506040513d601f19601f82011682018060405250810190612ef59190613bb2565b612f34576040517f08c379a0000000000000000000000000000000000000000000000000000000008152600401612f2b9061454f565b60405180910390fd5b6001600f60006101000a81548160ff0219169083151502179055503373ffffffffffffffffffffffffffffffffffffffff167fd15c9547ea5c06670c0010ce19bc32d54682a4b3801ece7f3ab0c3f17106b4bb82604051612f959190613520565b60405180910390a26130036040518060400160405280601181526020017f5365636f6e64496e7374616c6c6d656e740000000000000000000000000000008152506011604051602001612fe891906143fa565b6040516020818303038152906040528051906020012061328b565b505b50565b60165481565b60145481565b6014546005819055506015546006819055506000600781905550600060088190555060016009819055506000600a819055506000600b819055506000600c819055506000600e8190555060006010819055506000600d819055506000600360003373ffffffffffffffffffffffffffffffffffffffff1673ffffffffffffffffffffffffffffffffffffffff16815260200190815260200160002081905550600067ffffffffffffffff8111156130ce576130cd61396a565b5b6040519080825280602002602001820160405280156130fc5781602001602082028036833780820191505090505b5060049080519060200190613112929190613391565b506000600d819055506000600f60006101000a81548160ff0219169083151502179055506000600f60016101000a81548160ff0219169083151502179055506000600f60026101000a81548160ff0219169083151502179055506000600f60036101000a81548160ff0219169083151502179055506000601260006101000a81548173ffffffffffffffffffffffffffffffffffffffff021916908373ffffffffffffffffffffffffffffffffffffffff1602179055506000601360006101000a81548173ffffffffffffffffffffffffffffffffffffffff021916908373ffffffffffffffffffffffffffffffffffffffff160217905550600060168190555060005b6002548110156132885760016000828152602001908152602001600020600080820160006101000a81549073ffffffffffffffffffffffffffffffffffffffff021916905560018201600061326b919061343d565b60028201600090555050808061328090613cf0565b915050613216565b50565b60405180606001604052803373ffffffffffffffffffffffffffffffffffffffff1681526020018381526020018281525060016000600254815260200190815260200160002060008201518160000160006101000a81548173ffffffffffffffffffffffffffffffffffffffff021916908373ffffffffffffffffffffffffffffffffffffffff160217905550602082015181600101908161332d919061484c565b50604082015181600201559050506002600081548092919061334e90613cf0565b91905055505050565b6040518060600160405280600073ffffffffffffffffffffffffffffffffffffffff16815260200160608152602001600080191681525090565b82805482825590600052602060002090810192821561340a579160200282015b828111156134095782518260006101000a81548173ffffffffffffffffffffffffffffffffffffffff021916908373ffffffffffffffffffffffffffffffffffffffff160217905550916020019190600101906133b1565b5b509050613417919061347d565b5090565b6040518060600160405280600390602082028036833780820191505090505090565b50805461344990613ef7565b6000825580601f1061345b575061347a565b601f016020900490600052602060002090810190613479919061347d565b5b50565b5b8082111561349657600081600090555060010161347e565b5090565b6000604051905090565b600080fd5b600080fd5b6000819050919050565b6134c1816134ae565b81146134cc57600080fd5b50565b6000813590506134de816134b8565b92915050565b6000602082840312156134fa576134f96134a4565b5b6000613508848285016134cf565b91505092915050565b61351a816134ae565b82525050565b60006020820190506135356000830184613511565b92915050565b600073ffffffffffffffffffffffffffffffffffffffff82169050919050565b60006135668261353b565b9050919050565b6135768161355b565b811461358157600080fd5b50565b6000813590506135938161356d565b92915050565b6000602082840312156135af576135ae6134a4565b5b60006135bd84828501613584565b91505092915050565b60008115159050919050565b6135db816135c6565b82525050565b60006020820190506135f660008301846135d2565b92915050565b600081519050919050565b600082825260208201905092915050565b6000819050602082019050919050565b6136318161355b565b82525050565b600081519050919050565b600082825260208201905092915050565b60005b83811015613671578082015181840152602081019050613656565b60008484015250505050565b6000601f19601f8301169050919050565b600061369982613637565b6136a38185613642565b93506136b3818560208601613653565b6136bc8161367d565b840191505092915050565b6000819050919050565b6136da816136c7565b82525050565b60006060830160008301516136f86000860182613628565b5060208301518482036020860152613710828261368e565b915050604083015161372560408601826136d1565b508091505092915050565b600061373c83836136e0565b905092915050565b6000602082019050919050565b600061375c826135fc565b6137668185613607565b93508360208202850161377885613618565b8060005b858110156137b457848403895281516137958582613730565b94506137a083613744565b925060208a0199505060018101905061377c565b50829750879550505050505092915050565b600060208201905081810360008301526137e08184613751565b905092915050565b6137f18161355b565b82525050565b600060208201905061380c60008301846137e8565b92915050565b600060039050919050565b600081905092915050565b6000819050919050565b600061383e8383613628565b60208301905092915050565b6000602082019050919050565b61386081613812565b61386a818461381d565b925061387582613828565b8060005b838110156138a657815161388d8782613832565b96506138988361384a565b925050600181019050613879565b505050505050565b60006060820190506138c36000830184613857565b92915050565b600082825260208201905092915050565b60006138e582613637565b6138ef81856138c9565b93506138ff818560208601613653565b6139088161367d565b840191505092915050565b61391c816136c7565b82525050565b600060608201905061393760008301866137e8565b818103602083015261394981856138da565b90506139586040830184613913565b949350505050565b600080fd5b600080fd5b7f4e487b7100000000000000000000000000000000000000000000000000000000600052604160045260246000fd5b6139a28261367d565b810181811067ffffffffffffffff821117156139c1576139c061396a565b5b80604052505050565b60006139d461349a565b90506139e08282613999565b919050565b600067ffffffffffffffff821115613a00576139ff61396a565b5b613a098261367d565b9050602081019050919050565b82818337600083830152505050565b6000613a38613a33846139e5565b6139ca565b905082815260208101848484011115613a5457613a53613965565b5b613a5f848285613a16565b509392505050565b600082601f830112613a7c57613a7b613960565b5b8135613a8c848260208601613a25565b91505092915050565b600060208284031215613aab57613aaa6134a4565b5b600082013567ffffffffffffffff811115613ac957613ac86134a9565b5b613ad584828501613a67565b91505092915050565b7f4e487b7100000000000000000000000000000000000000000000000000000000600052601160045260246000fd5b6000613b18826134ae565b9150613b23836134ae565b9250828202613b31816134ae565b91508282048414831517613b4857613b47613ade565b5b5092915050565b6000606082019050613b6460008301866137e8565b613b7160208301856137e8565b613b7e6040830184613511565b949350505050565b613b8f816135c6565b8114613b9a57600080fd5b50565b600081519050613bac81613b86565b92915050565b600060208284031215613bc857613bc76134a4565b5b6000613bd684828501613b9d565b91505092915050565b7f5472616e73666572206661696c65640000000000000000000000000000000000600082015250565b6000613c15600f836138c9565b9150613c2082613bdf565b602082019050919050565b60006020820190508181036000830152613c4481613c08565b9050919050565b6000613c56826134ae565b9150613c61836134ae565b9250828201905080821115613c7957613c78613ade565b5b92915050565b600081519050613c8e816134b8565b92915050565b600060208284031215613caa57613ca96134a4565b5b6000613cb884828501613c7f565b91505092915050565b7f4e487b7100000000000000000000000000000000000000000000000000000000600052603260045260246000fd5b6000613cfb826134ae565b91507fffffffffffffffffffffffffffffffffffffffffffffffffffffffffffffffff8203613d2d57613d2c613ade565b5b600182019050919050565b7f4f6e6c792074687265652075736572732063616e2066756e642074686973206360008201527f6f6e74726163742e000000000000000000000000000000000000000000000000602082015250565b6000613d946028836138c9565b9150613d9f82613d38565b604082019050919050565b60006020820190508181036000830152613dc381613d87565b9050919050565b7f43616c6c6572206973206e6f7420746865206f776e6572000000000000000000600082015250565b6000613e006017836138c9565b9150613e0b82613dca565b602082019050919050565b60006020820190508181036000830152613e2f81613df3565b9050919050565b7f4f6e6c792042757965722063616e2063616c6c20746869732066756e6374696f60008201527f6e2e000000000000000000000000000000000000000000000000000000000000602082015250565b6000613e926022836138c9565b9150613e9d82613e36565b604082019050919050565b60006020820190508181036000830152613ec181613e85565b9050919050565b7f4e487b7100000000000000000000000000000000000000000000000000000000600052602260045260246000fd5b60006002820490506001821680613f0f57607f821691505b602082108103613f2257613f21613ec8565b5b50919050565b7f4f6e6c792053656c6c65722063616e2063616c6c20746869732066756e63746960008201527f6f6e2e0000000000000000000000000000000000000000000000000000000000602082015250565b6000613f846023836138c9565b9150613f8f82613f28565b604082019050919050565b60006020820190508181036000830152613fb381613f77565b9050919050565b7f496e73756666696369656e742062616c616e636520746f207769746864726177600082015250565b6000613ff06020836138c9565b9150613ffb82613fba565b602082019050919050565b6000602082019050818103600083015261401f81613fe3565b9050919050565b6000614031826134ae565b915061403c836134ae565b925082820390508181111561405457614053613ade565b5b92915050565b7f43616e6e6f742050726f63656564204675727468657220776974686f7574206760008201527f6976696e6720696e707574000000000000000000000000000000000000000000602082015250565b60006140b6602b836138c9565b91506140c18261405a565b604082019050919050565b600060208201905081810360008301526140e5816140a9565b9050919050565b7f496e73756666696369656e742062616c616e636520666f72207769746864726160008201527f77616c0000000000000000000000000000000000000000000000000000000000602082015250565b60006141486023836138c9565b9150614153826140ec565b604082019050919050565b600060208201905081810360008301526141778161413b565b9050919050565b7f52657475726e4f726465724e6f74596574526563656976656400000000000000600082015250565b60006141b46019836138c9565b91506141bf8261417e565b602082019050919050565b600060208201905081810360008301526141e3816141a7565b9050919050565b7f42757965722064656e696564207769746864726177616c000000000000000000600082015250565b60006142206017836138c9565b915061422b826141ea565b602082019050919050565b6000602082019050818103600083015261424f81614213565b9050919050565b600060408201905061426b60008301856137e8565b6142786020830184613511565b9392505050565b7f546f6b656e207472616e7366657220746f2053656c6c6572206661696c656400600082015250565b60006142b5601f836138c9565b91506142c08261427f565b602082019050919050565b600060208201905081810360008301526142e4816142a8565b9050919050565b7f546f6b656e207472616e7366657220746f204275796572206661696c65640000600082015250565b6000614321601e836138c9565b915061432c826142eb565b602082019050919050565b6000602082019050818103600083015261435081614314565b9050919050565b600081905092915050565b60008190508160005260206000209050919050565b6000815461438481613ef7565b61438e8186614357565b945060018216600081146143a957600181146143be576143f1565b60ff19831686528115158202860193506143f1565b6143c785614362565b60005b838110156143e9578154818901526001820191506020810190506143ca565b838801955050505b50505092915050565b60006144068284614377565b915081905092915050565b7f4f72646572536869707065642063616e206f6e6c792062652063616c6c65642060008201527f6f6e63652e000000000000000000000000000000000000000000000000000000602082015250565b600061446d6025836138c9565b915061447882614411565b604082019050919050565b6000602082019050818103600083015261449c81614460565b9050919050565b7f4e487b7100000000000000000000000000000000000000000000000000000000600052601260045260246000fd5b60006144dd826134ae565b91506144e8836134ae565b9250826144f8576144f76144a3565b5b828204905092915050565b7f546f6b656e207472616e73666572206661696c65640000000000000000000000600082015250565b60006145396015836138c9565b915061454482614503565b602082019050919050565b600060208201905081810360008301526145688161452c565b9050919050565b7f546f6f206d616e792066756e6465727300000000000000000000000000000000600082015250565b60006145a56010836138c9565b91506145b08261456f565b602082019050919050565b600060208201905081810360008301526145d481614598565b9050919050565b60006145e682613637565b6145f08185614357565b9350614600818560208601613653565b80840191505092915050565b600061461882846145db565b915081905092915050565b7f6f7264657252656365697665642063616e206f6e6c792062652063616c6c656460008201527f206f6e63652e0000000000000000000000000000000000000000000000000000602082015250565b600061467f6026836138c9565b915061468a82614623565b604082019050919050565b600060208201905081810360008301526146ae81614672565b9050919050565b60006020601f8301049050919050565b600082821b905092915050565b6000600883026147027fffffffffffffffffffffffffffffffffffffffffffffffffffffffffffffffff826146c5565b61470c86836146c5565b95508019841693508086168417925050509392505050565b6000819050919050565b600061474961474461473f846134ae565b614724565b6134ae565b9050919050565b6000819050919050565b6147638361472e565b61477761476f82614750565b8484546146d2565b825550505050565b600090565b61478c61477f565b61479781848461475a565b505050565b5b818110156147bb576147b0600082614784565b60018101905061479d565b5050565b601f821115614800576147d181614362565b6147da846146b5565b810160208510156147e9578190505b6147fd6147f5856146b5565b83018261479c565b50505b505050565b600082821c905092915050565b600061482360001984600802614805565b1980831691505092915050565b600061483c8383614812565b9150826002028217905092915050565b61485582613637565b67ffffffffffffffff81111561486e5761486d61396a565b5b6148788254613ef7565b6148838282856147bf565b600060209050601f8311600181146148b657600084156148a4578287015190505b6148ae8582614830565b865550614916565b601f1984166148c486614362565b60005b828110156148ec578489015182556001820191506020850194506020810190506148c7565b868310156149095784890151614905601f891682614812565b8355505b6001600288020188555050505b50505050505056fea2646970667358221220536b2aa9b86167534373b7bd31375ac9b1a1055b105e7a339e1a09d97fc6888464736f6c63430008130033",
  "linkReferences": {},
  "deployedLinkReferences": {}
}